{
  "_format": "hh-sol-artifact-1",
  "contractName": "TaskManager",
  "sourceName": "contracts/TaskManager.sol",
  "abi": [
    {
      "anonymous": false,
      "inputs": [
        {
          "indexed": false,
          "internalType": "uint256",
          "name": "id",
          "type": "uint256"
        },
        {
          "indexed": false,
          "internalType": "string",
          "name": "content",
          "type": "string"
        },
        {
          "indexed": false,
          "internalType": "bool",
          "name": "completed",
          "type": "bool"
        }
      ],
      "name": "TaskCreated",
      "type": "event"
    },
    {
      "anonymous": false,
      "inputs": [
        {
          "indexed": false,
          "internalType": "uint256",
          "name": "id",
          "type": "uint256"
        },
        {
          "indexed": false,
          "internalType": "string",
          "name": "content",
          "type": "string"
        }
      ],
      "name": "TaskEdited",
      "type": "event"
    },
    {
      "anonymous": false,
      "inputs": [
        {
          "indexed": false,
          "internalType": "uint256",
          "name": "id",
          "type": "uint256"
        },
        {
          "indexed": false,
          "internalType": "bool",
          "name": "completed",
          "type": "bool"
        }
      ],
      "name": "TaskToggled",
      "type": "event"
    },
    {
      "inputs": [
        {
          "internalType": "string",
          "name": "_content",
          "type": "string"
        }
      ],
      "name": "createTask",
      "outputs": [],
      "stateMutability": "nonpayable",
      "type": "function"
    },
    {
      "inputs": [
        {
          "internalType": "uint256",
          "name": "_id",
          "type": "uint256"
        },
        {
          "internalType": "string",
          "name": "_content",
          "type": "string"
        }
      ],
      "name": "editTask",
      "outputs": [],
      "stateMutability": "nonpayable",
      "type": "function"
    },
    {
      "inputs": [],
      "name": "taskCount",
      "outputs": [
        {
          "internalType": "uint256",
          "name": "",
          "type": "uint256"
        }
      ],
      "stateMutability": "view",
      "type": "function"
    },
    {
      "inputs": [
        {
          "internalType": "uint256",
          "name": "",
          "type": "uint256"
        }
      ],
      "name": "tasks",
      "outputs": [
        {
          "internalType": "uint256",
          "name": "id",
          "type": "uint256"
        },
        {
          "internalType": "string",
          "name": "content",
          "type": "string"
        },
        {
          "internalType": "bool",
          "name": "completed",
          "type": "bool"
        }
      ],
      "stateMutability": "view",
      "type": "function"
    },
    {
      "inputs": [
        {
          "internalType": "uint256",
          "name": "_id",
          "type": "uint256"
        }
      ],
      "name": "toggleCompleted",
      "outputs": [],
      "stateMutability": "nonpayable",
      "type": "function"
    }
  ],
  "bytecode": "0x608060405234801561001057600080fd5b50610dcb806100206000396000f3fe608060405234801561001057600080fd5b50600436106100575760003560e01c8063111002aa1461005c578063455f5024146100785780638d97767214610094578063b6cb58a5146100c6578063cb7bd995146100e4575b600080fd5b61007660048036038101906100719190610705565b610100565b005b610092600480360381019061008d9190610784565b610213565b005b6100ae60048036038101906100a99190610784565b6103ea565b6040516100bd9392919061085a565b60405180910390f35b6100ce6104a9565b6040516100db9190610898565b60405180910390f35b6100fe60048036038101906100f991906108b3565b6104af565b005b6000815111610144576040517f08c379a000000000000000000000000000000000000000000000000000000000815260040161013b9061095b565b60405180910390fd5b600080815480929190610156906109aa565b9190505550604051806060016040528060005481526020018281526020016000151581525060016000805481526020019081526020016000206000820151816000015560208201518160010190816101ae9190610bfe565b5060408201518160020160006101000a81548160ff0219169083151502179055509050507f05d0fb833127fc08168556d0e7ca9554fc3f6bc843b3b7d2bf1c35aea6bab6606000548260006040516102089392919061085a565b60405180910390a150565b60008111801561022557506000548111155b610264576040517f08c379a000000000000000000000000000000000000000000000000000000000815260040161025b90610d1c565b60405180910390fd5b6000600160008381526020019081526020016000206040518060600160405290816000820154815260200160018201805461029e90610a21565b80601f01602080910402602001604051908101604052809291908181526020018280546102ca90610a21565b80156103175780601f106102ec57610100808354040283529160200191610317565b820191906000526020600020905b8154815290600101906020018083116102fa57829003601f168201915b505050505081526020016002820160009054906101000a900460ff161515151581525050905080604001511581604001901515908115158152505080600160008481526020019081526020016000206000820151816000015560208201518160010190816103859190610bfe565b5060408201518160020160006101000a81548160ff0219169083151502179055509050507fe668c7a227d9261aa1f964bf5a852ab642446a7af6c29405caf8d0e9ce2c11f08282604001516040516103de929190610d3c565b60405180910390a15050565b600160205280600052604060002060009150905080600001549080600101805461041390610a21565b80601f016020809104026020016040519081016040528092919081815260200182805461043f90610a21565b801561048c5780601f106104615761010080835404028352916020019161048c565b820191906000526020600020905b81548152906001019060200180831161046f57829003601f168201915b5050505050908060020160009054906101000a900460ff16905083565b60005481565b6000821180156104c157506000548211155b610500576040517f08c379a00000000000000000000000000000000000000000000000000000000081526004016104f790610d1c565b60405180910390fd5b6000815111610544576040517f08c379a000000000000000000000000000000000000000000000000000000000815260040161053b9061095b565b60405180910390fd5b60006001600084815260200190815260200160002090508181600101908161056c9190610bfe565b507f126a0ea5197c062eb92c789989294eb8d2aef31cf41fd012da26dfab98b29a16838360405161059e929190610d65565b60405180910390a1505050565b6000604051905090565b600080fd5b600080fd5b600080fd5b600080fd5b6000601f19601f8301169050919050565b7f4e487b7100000000000000000000000000000000000000000000000000000000600052604160045260246000fd5b610612826105c9565b810181811067ffffffffffffffff82111715610631576106306105da565b5b80604052505050565b60006106446105ab565b90506106508282610609565b919050565b600067ffffffffffffffff8211156106705761066f6105da565b5b610679826105c9565b9050602081019050919050565b82818337600083830152505050565b60006106a86106a384610655565b61063a565b9050828152602081018484840111156106c4576106c36105c4565b5b6106cf848285610686565b509392505050565b600082601f8301126106ec576106eb6105bf565b5b81356106fc848260208601610695565b91505092915050565b60006020828403121561071b5761071a6105b5565b5b600082013567ffffffffffffffff811115610739576107386105ba565b5b610745848285016106d7565b91505092915050565b6000819050919050565b6107618161074e565b811461076c57600080fd5b50565b60008135905061077e81610758565b92915050565b60006020828403121561079a576107996105b5565b5b60006107a88482850161076f565b91505092915050565b6107ba8161074e565b82525050565b600081519050919050565b600082825260208201905092915050565b60005b838110156107fa5780820151818401526020810190506107df565b60008484015250505050565b6000610811826107c0565b61081b81856107cb565b935061082b8185602086016107dc565b610834816105c9565b840191505092915050565b60008115159050919050565b6108548161083f565b82525050565b600060608201905061086f60008301866107b1565b81810360208301526108818185610806565b9050610890604083018461084b565b949350505050565b60006020820190506108ad60008301846107b1565b92915050565b600080604083850312156108ca576108c96105b5565b5b60006108d88582860161076f565b925050602083013567ffffffffffffffff8111156108f9576108f86105ba565b5b610905858286016106d7565b9150509250929050565b7f436f6e74656e742063616e6e6f7420626520656d707479000000000000000000600082015250565b60006109456017836107cb565b91506109508261090f565b602082019050919050565b6000602082019050818103600083015261097481610938565b9050919050565b7f4e487b7100000000000000000000000000000000000000000000000000000000600052601160045260246000fd5b60006109b58261074e565b91507fffffffffffffffffffffffffffffffffffffffffffffffffffffffffffffffff82036109e7576109e661097b565b5b600182019050919050565b7f4e487b7100000000000000000000000000000000000000000000000000000000600052602260045260246000fd5b60006002820490506001821680610a3957607f821691505b602082108103610a4c57610a4b6109f2565b5b50919050565b60008190508160005260206000209050919050565b60006020601f8301049050919050565b600082821b905092915050565b600060088302610ab47fffffffffffffffffffffffffffffffffffffffffffffffffffffffffffffffff82610a77565b610abe8683610a77565b95508019841693508086168417925050509392505050565b6000819050919050565b6000610afb610af6610af18461074e565b610ad6565b61074e565b9050919050565b6000819050919050565b610b1583610ae0565b610b29610b2182610b02565b848454610a84565b825550505050565b600090565b610b3e610b31565b610b49818484610b0c565b505050565b5b81811015610b6d57610b62600082610b36565b600181019050610b4f565b5050565b601f821115610bb257610b8381610a52565b610b8c84610a67565b81016020851015610b9b578190505b610baf610ba785610a67565b830182610b4e565b50505b505050565b600082821c905092915050565b6000610bd560001984600802610bb7565b1980831691505092915050565b6000610bee8383610bc4565b9150826002028217905092915050565b610c07826107c0565b67ffffffffffffffff811115610c2057610c1f6105da565b5b610c2a8254610a21565b610c35828285610b71565b600060209050601f831160018114610c685760008415610c56578287015190505b610c608582610be2565b865550610cc8565b601f198416610c7686610a52565b60005b82811015610c9e57848901518255600182019150602085019450602081019050610c79565b86831015610cbb5784890151610cb7601f891682610bc4565b8355505b6001600288020188555050505b505050505050565b7f496e76616c6964207461736b2069640000000000000000000000000000000000600082015250565b6000610d06600f836107cb565b9150610d1182610cd0565b602082019050919050565b60006020820190508181036000830152610d3581610cf9565b9050919050565b6000604082019050610d5160008301856107b1565b610d5e602083018461084b565b9392505050565b6000604082019050610d7a60008301856107b1565b8181036020830152610d8c8184610806565b9050939250505056fea26469706673582212206d969715cb58bbd39659d17c61b7720bf606da863df9fe8ed93c2c6b6e14858264736f6c63430008140033",
  "linkReferences": {},
  "deployedLinkReferences": {}
}